:0300000002049A5D
:10000300C0E0C0D0C000C001C002E4F53CF53DF53E
:100013003EF53FF5407A20E533A2E779047830E6F0
:1000230033F608D9FA7905783CE636D4F608D9F9D7
:10003300DAE5D002D001D000D0D0D0E022C0E0C0B9
:10004300D0C000C001C002E4F53CF53DF53EF53FEC
:10005300F5407A20E533A2E779047830E633F608F1
:10006300D9FA7905783CC0D0E6243320E70224D0BE
:1000730020E30224FDD0D033F608D9EADAD6D00241
:10008300D001D000D0D0D0E022C0E0C0D0C000C0AA
:1000930001C0027A207905C37840E613C0D030E767
:1000A3000224D030E30224FDF618D0D0D9EC790431
:1000B3007833E613F618D9FADADBD002D001D00090
:1000C300D0D0D0E022C0E0C0D0E5302534F530E513
:1000D300313535F531E5323536F532E5333537F53A
:1000E30033D0D0D0E022C0E0C0D0C3E5309534F5A2
:1000F30030E5319535F531E5329536F532E5339511
:1001030037F533D0D0D0E022C0E0C0D0C3E530957E
:1001130034E5319535E5329536E53395379200D0A0
:10012300D0D0E022C0E0C0D0C3E5349530E53595AA
:1001330031E5369532E53795339200D0D0D0E022C1
:10014300C0E0C0D0C200C3E53495307014E53595E6
:1001530031700EE53695327008E53795337002D26B
:1001630000D0D0D0E0221201432000030201272255
:1001730012014320000302010B22C0E0C0F0C0D0F3
:10018300C000C001C002C003E5308534F0A4F8A963
:10019300F0E5318534F0A429F9E435F0FAE530854A
:1001A30035F0A429F9E5F03AFAE433FBE532853476
:1001B300F0A42AFAE5F03BFBE5318535F0A42AFAF1
:1001C300E5F03BFBE5308536F0A42AFAE5F03BFB8E
:1001D300E5338534F0A42BFBE5328535F0A42BFB06
:1001E300E5318536F0A42BFBE5308537F0A42BFBF6
:1001F3008B338A3289318830D003D002D001D000CA
:10020300D0D0D0F0D0E022C0E0C0D0C000C001C048
:1002130002C003C0047C20E4F8F9FAFBC3E53033E1
:10022300F530E53133F531E53233F532E53333F586
:1002330033E833F8E933F9EA33FAEB33FBC3E895F0
:1002430034E99535EA9536EB95374013E89534F85C
:10025300E99535F9EA9536FAEB9537FB433001DC3E
:10026300BBD004D003D002D001D000D0D0D0E02244
:10027300C00078C40000D8FCD00022C000C00179BF
:100283002E78B4D8FED9FADAF6D001D00022D2966D
:10029300120273C29622A2E79286A2E69287A2E591
:1002A3009290A2E49291120291120273A2E39286B7
:1002B300A2E29287A2E19290A2E09291120291228D
:1002C300D2A0020299C2A0020299C296C297C002AA
:1002D3007A2812027ED00274331202C874331202D7
:1002E300C874321202C874281202C8740C1202C8ED
:1002F30074011202C8C0027A0212027ED00222E402
:100303009360061202C3A380F62244404480020293
:10031300C8C0E0E8C4540F44301202C3E8540F4489
:07032300301202C3D0E022FA
:10032A00C0E074071412030DD0E0C000A840120305
:10033A0014D000C000A83F120314D000C000A83E89
:10034A00120314D000C000A83D120314D000C0004C
:10035A00A83C120314D000C0E074071412030DD095
:10036A00E0E54054F0C4600302040FC0E0742012B8
:10037A0002C3D0E0E540540F600302040FC0E074EA
:10038A00201202C3D0E0E53F54F0C4600302040F18
:10039A00C0E074201202C3D0E0E53F540F600302AC
:1003AA00040FC0E074201202C3D0E0E53E54F0C44A
:1003BA00600302040FC0E074201202C3D0E0E53EDD
:1003CA00540F600302040FC0E074201202C3D0E08D
:1003DA00E53D54F0C4600302040FC0E07420120229
:1003EA00C3D0E0E53D540F600302040FC0E074205F
:1003FA001202C3D0E0E53C54F0C47009C0E0742096
:10040A001202C3D0E022C0E074071412030DD0E038
:10041A00C0E074201202C3D0E0C000A83F12031447
:10042A00D000C000A83E120314D000C0E0742E12FF
:10043A0002C3D0E0C000A83D120314D000C000A837
:10044A003C120314D0002263617061636974616EA7
:10045A006365286E46293A007AC679F578A7D8FEE8
:10046A00D9FADAF622EA540F44301202C3E9C45424
:10047A000F44301202C3E9540F44301202C3E8C4D5
:10048A00540F44301202C3E8540F44301202C322FC
:10049A0075817F7597DE7597AD43D47F43D5037514
:1004AA00E10075E21075E34075A90075A900E5A998
:1004BA0030E7FBC28CE58954F04405F5891202CD78
:1004CA00C0E074011412030FD0E0C083C082C0E000
:1004DA00900451120302D0E0D082D083C28C758A74
:1004EA0000758C00D28C120462C28C858A34858C89
:1004FA00357536007537007530007531A87532D4F8
:10050A0075335512020A7534E87535037536007568
:10051A00370012017D75347A7535007536007537E6
:0D052A000012020A1200031204100204E67F
:00000001FF
