:030000000206B63F
:0100030032CA
:01000B0032C2
:0100130032BA
:01001B0032B2
:0100230032AA
:03005B0002039904
:10005E00C0E0C0D0C000C001C002E4F53BF53CF5E5
:10006E003DF53EF53F7A20E536A2E779047833E692
:10007E0033F608D9FA7905783BE636D4F608D9F97D
:10008E00DAE5D002D001D000D0D0D0E022C0E0C05E
:10009E00D0C000C001C002E4F53BF53CF53DF53E95
:1000AE00F53F7A20E536A2E779047833E633F60891
:1000BE00D9FA7905783BC0D0E6243320E70224D064
:1000CE0020E30224FDD0D033F608D9EADAD6D002E6
:1000DE00D001D000D0D0D0E022C0E0C0D0C000C04F
:1000EE0001C0027A207905C3783FE613C0D030E70D
:1000FE000224D030E30224FDF618D0D0D9EC7904D6
:10010E007836E613F618D9FADADBD002D001D00031
:10011E00D0D0D0E022C0E0C0D0E5332537F533E5AE
:10012E00343538F534E5353539F535E536353AF5C6
:10013E0036D0D0D0E022C0E0C0D0C3E5339537F53D
:10014E0033E5349538F534E5359539F535E536959D
:10015E003AF536D0D0D0E022C0E0C0D0C3E533951A
:10016E0037E5349538E5359539E536953A9200D030
:10017E00D0D0E022C0E0C0D0C3E5379533E5389546
:10018E0034E5399535E53A95369200D0D0D0E02257
:10019E00C0E0C0D0C200C3E53795337014E5389582
:1001AE0034700EE53995357008E53A95367002D201
:1001BE0000D0D0D0E02212019E2000030201822244
:1001CE0012019E20000302016622C0E0C0F0C0D0E2
:1001DE00C000C001C002C003E5338537F0A4F8A902
:1001EE00F0E5348537F0A429F9E435F0FAE53385E6
:1001FE0038F0A429F9E5F03AFAE433FBE535853712
:10020E00F0A42AFAE5F03BFBE5348538F0A42AFA8F
:10021E00E5F03BFBE5338539F0A42AFAE5F03BFB2C
:10022E00E5368537F0A42BFBE5358538F0A42BFB9E
:10023E00E5348539F0A42BFBE533853AF0A42BFB8E
:10024E008B368A3589348833D003D002D001D00062
:10025E00D0D0D0F0D0E022C0E0C0D0C000C001C0ED
:10026E0002C003C0047C20E4F8F9FAFBC3E5333383
:10027E00F533E53433F534E53533F535E53633F519
:10028E0036E833F8E933F9EA33FAEB33FBC3E89592
:10029E0037E99538EA9539EB953A4013E89537F8F2
:1002AE00E99538F9EA9539FAEB953AFB433301DCD7
:1002BE00BBD004D003D002D001D000D0D0D0E022E9
:1002CE00C000C001790378C40000D8FCD9F8D00171
:1002DE00D00022C000C001798A78B4D8FED9FADAEB
:1002EE00F6D001D00022D2951202CEC29522A2E7FC
:1002FE0092A5A2E692A4A2E592A3A2E492A2120271
:10030E00F41202CEA2E392A5A2E292A4A2E192A3DB
:10031E00A2E092A21202F422D2970202FCC297022B
:10032E0002FCC295C296C0027A281202E1D0027473
:10033E003312032B743312032B743212032B7428D3
:10034E0012032B740C12032B740112032BC0027AAE
:10035E00021202E1D00222E4936006120326A38069
:10036E00F6224440448002032BC0E0E8C4540F44FC
:10037E0030120326E8540F4430120326D0E02277C1
:10038E00617465726C6576656C3A0075A700C2CFB4
:10039E00C0E0C0D0E53045314532602974FF1530DC
:1003AE00B530071531B531021532D2A01205CF7511
:1003BE00A730C0E0C454F0F584D0E0C4540FF585E6
:1003CE0075A7008006C2CAD283C2A0D0D0D0E032B8
:1003DE00C0E0740714120370D0E0C000A83F1203EF
:1003EE0077D000C000A83E120377D000C000A83D11
:1003FE00120377D000C000A83C120377D000C000D3
:10040E00A83B120377D000C0E0740714120370D01B
:10041E00E0E53F54F0C460030204C3C0E074201250
:10042E000326D0E0E53F540F60030204C3C0E0741E
:10043E0020120326D0E0E53E54F0C460030204C34C
:10044E00C0E07420120326D0E0E53E540F60030294
:10045E0004C3C0E07420120326D0E0E53D54F0C47E
:10046E0060030204C3C0E07420120326D0E0E53D11
:10047E00540F60030204C3C0E07420120326D0E0C0
:10048E00E53C54F0C460030204C3C0E074201203C0
:10049E0026D0E0E53C540F60030204C3C0E0742094
:1004AE00120326D0E0E53B54F0C47009C0E074207E
:1004BE00120326D0E022C0E0740114120370D0E0C3
:1004CE00C000A83E120377D000C000A83D120377EB
:1004DE00D000C000A83C120377D000C000A83B1289
:1004EE000377D000227AC879FA78F0000000D8FBA2
:1004FE00D9F7DAF322858A37858C38753900753A43
:10050E00007533007534F9753515753600120265B0
:10051E00753710753827753900753A001201D87580
:10052E00377A753800753900753A001202657537DD
:10053E00C6753800753900753A001201D875371036
:10054E00753827753900753A001202657537397599
:10055E003800753900753A00120144E478007900CC
:10056E007A007B10E58A33F58AE58C33F58CE83812
:10057E00D4F8E939D4F9EA3AD4FADBE822EAC454D9
:10058E000F4430120326EA540F4430120326E9C4F6
:10059E00540F4430120326E9540F4430120326E858
:1005AE00C4540F4430120326E8540F44301203266D
:1005BE002210990280FBF5992210980280FBE59992
:1005CE0022F5A330FFFDC2FFE5A322C283740612FB
:1005DE0005CFD28322C28374051205CF745512053E
:1005EE00CFD28320E0EF227597DE7597AD75FF8031
:1005FE0075EF0675A71075C12075A70075A9007552
:10060E00A900E5A930E7FB75A90375A903E5A93093
:10061E00E7FB75A70053F4FE43B00175A41D43D448
:10062E000843D50375E10375E21075E34075981024
:10063E00758DE6858D8B53890F438920D28ED29985
:10064E0075A73075888875980075A222759180758A
:10065E00920275840075850875A70075A20075A1B4
:10066E004075F801D283C2A075C800438E1075CABA
:10067E003F75CBF375CFFF75CEFFD2ADC28CE5893A
:10068E0054F04405F589120330C0E07401141203CE
:10069E0072D0E0C083C082C0E090038D120365D09B
:1006AE00E0D082D083D2AF2275817F1205F52098DB
:1006BE005220B73430B7FDC2CAD283C2A0C28374EF
:1006CE00031205CF74001205CF74001205CF74000B
:1006DE001205CF74001205CF75323F7531FF75309C
:1006EE00FFD2A0D2CA0206BCC28C758A00758C00DD
:1006FE00D28C1204F3C28C12050312005E1204C4D3
:10070E000206BC1205C7B423A5C2CAD283C2A01268
:10071E0005C7B43024C283749F1205CF74551205D9
:10072E00CF1205BF74551205CF1205BF74551205B1
:10073E00CF1205BFD2830206BCB431171205D9C23F
:10074E008374C71205CFD2831205E374011205BF5D
:10075E000206BCB432351205D9C28374021205CF1B
:10076E001205C71205CF1205C71205CF1205C71203
:10077E0005CF1205C7F81205C71205CFD8F8D283D8
:10078E001205E374011205BF0206BCB4332CC283FA
:10079E0074031205CF1205C71205CF1205C7120535
:1007AE00CF1205C71205CF1205C7F874551205CF23
:1007BE001205BFD8F6D2830206BCB43436C2CAD2F2
:1007CE0083C28374031205CF1205C71205CF12051B
:1007DE00C71205CF1205C71205CF1205C7F5321283
:1007EE0005C7F5311205C7F53074001205CFD2CA10
:1007FE000206BCB4355C1205C7FD1205C7FC120516
:10080E00C7FB0B0C0D75A72075CE08C2837403129F
:10081E0005CFE41205CFE41205CFE41205CFF5A300
:10082E00800B30FFFDC2FFE5A3F5A3F5CADBF3DCB9
:10083E00F1DDEF30FFFDC2FFE5A3D28375CE01E5FA
:10084E00CB1205BF75CE00E5CB1205BF75A7000212
:10085E0006BCB436351205D9C28374021205CF1206
:10086E0005C71205CF1205C71205CF1205C712050F
:10087E00CF1205C7F97800E91205CFD8FAD2831244
:0D088E0005E374011205BF0206BC0206BCA2
:00000001FF
