:1000000002000375815C120094E582600302006FB8
:10001000780079007A007B007C007D00EC4D601C4C
:1000200088828983E493A3A882A9838A828B83F040
:10003000A3AA82AB831CBCFFE31D80E07582007520
:1000400083007C007D00EC4D600AE4F0A31CBCFF43
:10005000F51D80F27582007583007C007D00EC4DFB
:10006000600AE4F0A31CBCFFF51D80F2120093129D
:1000700003CF80FE1B5B324A0074656D7065726150
:10008000747572653A0020252E35660025302E33B2
:10009000660A002275A7007597DE7597AD75FF801B
:1000A00075EF0675A71075C12075A70075A90075B5
:1000B000A900E5A930E7FB75A90375A903E5A930F7
:1000C000E7FB43A41075E10175E20075E340759804
:1000D00010758DE6858D8B53890F438920D28ED282
:1000E000997582002275A700C2EF75B28075BC2099
:1000F00075B91E75E80075DF3F75B300D2EF22AA0F
:1001000082438E407592B87593FF8592948593953E
:100110007591047B00C3EB9A500BE59130E7FB53DC
:10012000917F0B80F075910022AA82AB837C007DC9
:1001300000C3EC9AED9B502B7E00BE0400501D7551
:1001400082FAC002C003C004C005C0061200FFD07E
:1001500006D005D004D003D0020E80DE0CBC00D146
:100160000D80CE22AA828511F005F074018002254F
:10017000E0D5F0FBFB75A720BA0002800ABA0102A5
:10018000800FBA021E8014EBF4FA52F1EB42D480D5
:1001900012EBF4FA52F2EB42D58008EBF4FA52F388
:1001A000EB42CC75A700228582BBC2EDD2EC30EDCC
:1001B000FD85BD8285BE83221201A71204EFAA82AB
:1001C000AB83ACF0FDC002C003C004C005906C8BD3
:1001D00075F05374401204FBAA82AB83ACF0FDE5CA
:1001E0008124FCF581E4C0E074FCC0E0747FC0E0D1
:1001F0007446C0E08A828B838CF0ED1206A0AA823E
:10020000AB83ACF0FDE58124FCF5818A828B838C85
:10021000F0ED22D2967582281200FFC29622AA82A1
:100220008AE0A2E79286A2E69287A2E59290A2E4F3
:100230009291C0021202137582281200FFD0028A26
:10024000E0A2E39286A2E29287A2E19290A2E092DB
:1002500091020213AA82D2A08A8212021E90000288
:10026000020129AA82C2A08A8212021E90000502FF
:100270000129C296C2979000141201297582331287
:1002800002637582331202637582321202637582D1
:100290002812026375820C120263758201120263D6
:1002A000900014020129AA82AB83ACF07402B5223B
:1002B000047DC080027D808D82C002C003C0041214
:1002C0000263900005120129D004D003D0027D0002
:1002D0007E00ED2AFFEE3BF88C018F82888389F047
:1002E0001204D3FF60208F82C002C003C004C00587
:1002F000C006120254D006D005D004D003D0020D9F
:10030000BD00CF0E80CC3000248D028E03C3EA9452
:1003100010EB648094805015758220C002C00312D7
:100320000254D003D0020ABA00E30B80E022858297
:100330002585832685F027E4F528F529E52324FF84
:10034000FFE52434FFF879007A00C3E99FEA64806E
:1003500088F063F08095F05059C002C007C000C01B
:10036000011205D4AB82D001D000D007D002BB0A65
:10037000028003BB0D1DE5282525FCE5293526FD5A
:10038000AE278C828D838EF0E41205E78528828566
:10039000298322E92525FCEA3526FDAE278C828DAE
:1003A000838EF0EB1205E709B900010A89288A2932
:1003B0008098E5282525FAE5293526FBAC278A8291
:1003C0008B838CF0E41205E7852382852483221237
:1003D00002729001F41201297474C0E07400C0E04C
:1003E0007480C0E01205B315811581158175220155
:1003F000D20090007975F0801202A6751102758204
:1004000002120164751103758202120164751104F0
:10041000758202120164751105758202120164125F
:1004200000E575820F1201B8AA82AB83ACF0FD74AF
:1004300052C0E074B8C0E0742EC0E07440C0E08ADE
:10044000828B838CF0ED120695AA82AB83ACF0FD13
:10045000E58124FCF581C002C003C004C005900002
:100460000075F0C874421204FBAA82AB83ACF0FDA5
:10047000E58124FCF581C002C003C004C005C002B0
:10048000C003C004C0057486C0E07400C0E074807E
:10049000C0E0742AC0E07400C0E07440C0E01206FE
:1004A0004FE58124F6F581752202D20090002A756D
:1004B000F0401202A6748CC0E07400C0E07480C0EA
:1004C000E01205B3E58124F9F5819003E8120129D2
:1004D00002042220F71430F6148883A88220F5073E
:1004E000E6A88375830022E280F7E49322E022E409
:1004F000AC83AB82FAF9748E0207C8120854BC00B0
:10050000030207F3EF60FA30D502B2D1E583B4FFFE
:1005100003020809E582B4FF0302080925834007A6
:100520002482400B0207F32483145003020809F5C8
:1005300082EA8DF0A4A8F0EA8EF0A428F8E435F061
:10054000F9EB8DF0A428E935F0F9E433CA8FF0A473
:1005500029F9EA35F0FAEBF88EF0A429F9EA35F03A
:10056000FAE433FBEC8DF0A429F9EA35F0FAE43B28
:10057000FBE88FF0A42AFAEB35F0FBE433CCFD8ED8
:10058000F0A42AFAEB35F0FBE43CFCED8FF0A42B51
:10059000FBEC35F0FC20E7031208210207D202121F
:1005A0000E85824985834A85F04B85104C90059EC7
:1005B000020C61C008858108E50824FBF54CE508BC
:1005C00024FBF8864908864A08864B90059E120C43
:1005D00061D0082210980280FBAA998A82C0021278
:1005E000120ED0028A822220F71030F6118883A8DA
:1005F0008220F507F6A88375830022F280F7F022A7
:10060000AA82AB09AC0AAD0B8B828C838DF0EA1207
:1006100005E70509E4B50902050A228582098583F3
:100620000A85F00B850C49850D4A850E4B850F4CCC
:10063000900600120C61AA82AB83AC09AD0AAE0B26
:100640008C828D838EF0E41205E78A828B8322C030
:1006500008858108E50824F8F54CE50824FBF886B0
:100660000908860A08860BE50824F8F886490886F2
:100670004A08864B900600120C61AA82AB83AC0933
:10068000AD0AAE0B8C828D838EF0E41205E78A8270
:100690008B83D00822A8811818C6B2E7C60212239D
:1006A00012085430D502B2D1BF0009BC00030208C1
:1006B00016020809BC00030207F3E583B4FF0BE54B
:1006C00082B4FF030208160207F3E582B4FF0302B7
:1006D0000809C395835007247F400B0207F3248049
:1006E000145003020809C0E0E4CCCBCAF98D118E86
:1006F000128F13EF54F0C4F5147583068514F0EBD4
:1007000084F582E9C4F9EAC4FAEBC4FBEC540FC4E3
:100710007803D6FC18EBD6FB18EAD6FA8582F0ED02
:10072000A4A8F0FD8582F0EEA428FEE435F0F8855B
:1007300082F0EFA428FFE435F0F8E99DF9EA9EFA8B
:10074000EB9FFBEC98FCAD11AE12AF1330E7101528
:1007500082E92DF9EA3EFAEB3FFBE43CFC80EDC078
:1007600082D58398C3E933F9EA33FAEB33FBEC33F0
:10077000FCC3E99DEA9EEB9FEC9400B3E413F9D02F
:1007800002D0E0C44AFAD003D0E0C44BFBD004D07E
:10079000E0F5F0540FC44CFCD082158230F40FD336
:1007A000EC13FCEB13FBEA13FAE913F90582E930C9
:1007B000E70A74012AFAE43BFBE43CFC0207EAFC8A
:1007C000ABF0AA83A982749EC2D1F58212082102DD
:1007D00007D2B98003EA13B34010EA2401FAE43BDC
:1007E000FBE43CFC50047C800582BC000EBB000B8B
:1007F000BA0008E4F5F0F583F58222A2D1E5821370
:100800008CF092F78B838A8222E4F583F58275F06F
:1008100080F4A2D11322E4F583F58275F0C0747FD1
:10082000227804EC7011E58224F8500AF582E4C9BC
:10083000CACBFCD8EF22EC7820058220E713D582C2
:100840000122C3E933F9EA33FAEB33FBEC33FCD88A
:10085000EA158222AA82AB83A2F73392D16002D238
:10086000F7F582ACF0E58124F9F8E6FD08E6FE082C
:1008700086F008E6A2F73392D56002D2F7F583AF8F
:10088000F022AA827493C0E07408C0E0C03BC03C70
:100890008A82220542E4B54202054322AA827430CC
:1008A0002AFA24C6500A74072AFA300103430220A8
:1008B0008A82020882E582FAC4540FF582C00212CD
:1008C000089CD002740F5AF58202089CAA3DAB3EE8
:1008D000AC3FAD40AE41754820EE2EFEED235401F5
:1008E000FF4206EA2AFAEB33FBEC33FCED33FDC39F
:1008F000EE95444008EEC39544FE430201D548D925
:100900008A3D8B3E8C3F8D408E41227859E624D023
:1009100075F00AA4FA785AE624D02AFA78588603A1
:10092000BB2D04C3E49AFA754401C3E464808AF0E1
:1009300063F08095F050297548038A0374F62548C2
:10094000401C0544E54814244DF8E548244DF9873A
:1009500004A604772E1BEBFA6004054880DE8B02A8
:10096000EA30E70D784E8603784FA603784E762E50
:100970000AE546600AE54604FB2544F54480053057
:100980000C020544784D8603E4BB2D0104FB700680
:100990002007033008020544300503020A523006DE
:1009A00057EB600C75822DC002120882D002801CA9
:1009B00030070C75822BC002120882D002800D30E5
:1009C000080A758220C002120882D002784E86047E
:1009D000BC2E0C758230C002120882D0021545ACC4
:1009E000451545C3E5449C4003020A96758230C014
:1009F00002120882D00280E7AC451545C3E5449C4D
:100A0000500C758220C002120882D00280EA784D14
:100A10008604BC2D0C75822DC002120882D0028083
:100A20001C30070C75822BC002120882D002800D88
:100A300030080A758220C002120882D002784E86E1
:100A400004BC2E52758230C002120882D0021545B5
:100A50008044EB600E75822DC002120882D0021510
:100A600045802030070E75822BC002120882D0020A
:100A70001545800F30080C758220C002120882D004
:100A8000021545784E8603BB2E0C758230C00212CB
:100A90000882D0021545754801C20EE548244DF87C
:100AA0008603BB4503020B53BB2E348A03C3E464A5
:100AB000808BF063F08095F0500F758230C0031288
:100AC0000882D0031B8B0280E48B02D20EE54670B5
:100AD00038200C03020B5375822E1208828074306A
:100AE0000E278A03EB30E71FC3E464808546F0637A
:100AF000F08095F0500C758230C003120882D0034C
:100B000015460B8B0280DD8B02300E0EC3E4648031
:100B10008546F063F08095F05021E548244DF88635
:100B2000038B82C002120882D002300E0EE54824E8
:100B30004DF88603BB2E02800215461545C3E464BA
:100B4000808546F063F08095F04003200E0505484F
:100B5000020A9BC3E464808546F063F08095F05000
:100B60000A758230120882154680E830050FAA45C2
:100B70001545EA600875822012088280F122E54658
:100B80007003300C0D74072546FAE545C39AF54508
:100B90008006E54524FAF545754800784D8602BA89
:100BA0002B0F20070C784D7620200805754801058D
:100BB00045200519AA45C3E464808AF063F0809556
:100BC000F0500A758220120882154580E7C20EE5B2
:100BD00048244DF88602BA00028069BA451F3001E8
:100BE000027665C3E464808546F063F08095F0503A
:100BF0000A758230120882154680E8D20EC3E54895
:100C00009402E433FA7014EA700EC3E464808546FB
:100C1000F063F08095F04003300E16E548244DF85F
:100C200086028A82120882E54824FD501215468009
:100C30000E7402B54809300C0675822E1208820522
:100C400048020BCF300519AA45C3E464808AF063DB
:100C5000F08095F0500A758220120882154580E7D1
:100C60002285823B85833CE4F542F543AA49AB4AA1
:100C7000AC4B8A828B838CF01204D3FD74012AF56D
:100C800049E43BF54A8C4BEDFA7003021207BA2592
:100C90000280030211FFC205C206C207C208C209D0
:100CA000C20AC20BC20CC202C203C2047544007560
:100CB00045007546FFAB49AC4AAD4B8B828C838DAA
:100CC000F01204D3FAA3AB82AC838B498C4A8D4BD0
:100CD000BA25078A8212088280928A06BE300040B6
:100CE0002E8A06EE24C6402774FFB54613E54575E7
:100CF000F00AA4FEEA24D02EF54570BFD20680BBD0
:100D0000E54675F00AA4FEEA24D02EF54680ACBA7A
:100D10002E0A74FFB546A4754600809F8A06BE6100
:100D200000400E8A06EE248540075302DFD2018080
:100D300002C201BA20028075BA2303020DBCBA2A8E
:100D400003020DC1BA2B02805FBA2D028055BA4250
:100D500002805FBA4303020E06BA4403020F41BA8F
:100D60004503020F5BBA4603020F57BA4703020F4F
:100D70005FBA4903020F41BA4C02803BBA4E0302EC
:100D80000F63BA4F03020F48BA5003020EDABA5388
:100D900003020E2ABA5503020F4DBA5803020F522E
:100DA000020F8DD205020CBBD207020CBBD2080287
:100DB0000CBBD20A020CBBD20B020CBBD20C020C35
:100DC000BB74FFB54620300A0BE54C14F8884C86FE
:100DD00045020CBBE54C24FEF8884C8606088607C5
:100DE000188E45020CBB300A0BE54C14F8884C8673
:100DF00046020CBBE54C24FEF8884C8606088607A4
:100E0000188E46020CBB300A0AE54C14F8884C8652
:100E100002800FE54C24FEF8884C860308860418EF
:100E20008B028A82120882020F92E54C24FDF88818
:100E30004C860308860408860518188B3D8C3E8D69
:100E40003F8B828C838DF012139BAB82AC838B47DC
:100E500074FFB5460385474620051DC3E547954504
:100E60005016E545C39547F545AB451545EB60087C
:100E700075822012088280F1853D82853E83853F00
:100E8000F01204D3FBFA6029AB461546C3E4648034
:100E90008BF063F08095F050188A82120882AB3D87
:100EA000AC3EAD3F0BBB00010C8B3D8C3E8D3F80BB
:100EB000C7200503020F92C3E54795454003020F83
:100EC00092E545C39547F545AB451545EB700302E3
:100ED0000F9275822012088280EEE54C24FDF8887E
:100EE0004C860308860408860518188B3D8C3E8DB9
:100EF0003FE53FFB30E7047A438013EB5460600426
:100F00007A50800AEB30E6047A4980027A588A8265
:100F1000C00212088275823A120882758230120865
:100F200082758278120882D002BA4902800BBA50C8
:100F3000028006853E821208B5853D821208B58082
:100F400051D20975440A804A754408804575440A9F
:100F50008040754410803BD2028037D2038033D268
:100F600004802FE54C24FDF8884C8603088604088D
:100F7000860518188B3D8C3E8D3F8B828C838DF0BF
:100F8000E5421205E7A3E5431205E780058A8212D0
:100F90000882200206200303300470E54C24FCF88C
:100FA000884C8603088604088605088606181818E3
:100FB0008B3D8C3E8D3F8E40E53DE53EE53FE54077
:100FC0008B828C838DF0EE12127C74FFB546037514
:100FD0004606300427747F5540FB8B41E541EB2BDF
:100FE000FB8B41E53F30E70674014541F541E541A2
:100FF00024684006749925414002D203300306124A
:101000000B7E020C6C12090B020C6CE5447003029F
:101010000C6C7B52300A2BE54C14F8884CE6FC3300
:1010200095E0FDFEFF8C3D8D3E8E3F8F4020095E9A
:10103000AC3D7D007E007F008C3D8D3E8E3F8F401D
:10104000804C300B1FE54C24FCF8884C8604088645
:10105000050886060886071818188C3D8D3E8E3FB9
:101060008F40802AE54C24FEF8884C8604088605CB
:1010700018ED3395E0FEFF8C3D8D3E8E3F8F402076
:10108000090CAC3DAD3E7E007F008E3F8F40300CA2
:1010900043E53D453E453F454060397408B5440C45
:1010A000758230C003120882D00380287410B544C2
:1010B00023758230C003120882D00330010C758280
:1010C00078C003120882D003800A758258C00312C8
:1010D0000882D003300925AC3DAD3EAE3FE540FF70
:1010E00030E717C3E49CFCE49DFDE49EFEE49FFF13
:1010F0008C3D8D3E8E3F8F408002C209754700D2E5
:101100000D8B00754100C0001208CCD000200D0DE1
:10111000E541C4FCE6FD4CF61888038002A64105B3
:1011200047B20DE53D453E453F454070D68803E555
:1011300045700375450120061A200517E54704FC94
:10114000C39545500E758220C003120882D0031546
:101150004580E930090E75822DC003120882D00344
:1011600015458024E547602030070E75822BC003AB
:10117000120882D0031545800F30080C758220C0FC
:1011800003120882D003154520051EAC451545C342
:10119000E5479C50273006047C3080027C208C82FE
:1011A000C003120882D00380E2C3E5479545500989
:1011B000E545C39547F54580037545008B00AB4772
:1011C0001547EB6022B20D200D0A08E6C4540FFB50
:1011D0008B4180078603740F5BF541854182C00017
:1011E00012089CD00080D7200503020C6CAB45157B
:1011F00045EB7003020C6C75822012088280EE8A27
:1012000082120882020C6C85428285438322AA8264
:10121000BA0A0810990280FB75990D10990280FB9B
:101220008A99221208547900E583B58202800D5014
:10123000031213C3E583C395821213DDE5D0C465A1
:10124000D020E117EA2DFAEB3EFBEC3FFC5009748D
:10125000011213DDEC4480FC0207D2C3EA9DFAEBD5
:101260009EFBEC9FFC500FC3E499F9E49AFAE49BCF
:10127000FBE49CFCB2D11208210207D2C0E0F84581
:1012800082458345F07009F5F0FBFCFDFE02134A30
:10129000E823A2F792E0F8A982AA83D2F7ABF07C08
:1012A000007E07C3749798404074FF2EFE740A892D
:1012B000F0A4F985F082740A8AF0A4FA85F08374A8
:1012C0000A8BF0A4FB740529F9EA3582FAEB358321
:1012D000FB740035F0FCC3EC13FCEB13FBEA13FAD0
:1012E000E913F908EC70EF80BAE8C3947FF88B83B8
:1012F0008EF0E4FBFCFDFEFF08C3E933F9EA33FAA4
:10130000E58333F583EB3BD4FBEC3CD4FCED3DD4DF
:10131000FDEE3ED4FEEF3FD4FF602D05F074052BAB
:10132000D4FBE43CD4FCE43DD4FDE43ED4FEE43FF5
:10133000D4FF758204C3EF13FFEE13FEED13FDEC33
:1013400013FCEB13FBD582EDD8AF784DD0E020E74E
:1013500004762B8002762D087906E7C4540F4430BA
:10136000F608B90603762E08E7540F4430F608193C
:10137000B902E7764508E5F020E704762B8004768D
:101380002DF4040875F00A844430F608E5F0443082
:10139000F608E4F690004D75F04022AA82AB83ACCB
:1013A000F07D007E008A828B838CF01204D3FFA331
:1013B000AA82AB83EF60070DBD00EA0E80E78D8245
:1013C0008E8322E582C583F582A2D133A2D592D144
:1013D0001392D5ECCFFCEBCEFBEACDFA226040F8BD
:1013E0002582500274FFF582E824F8501ECCCBCA47
:1013F000F9E4CC24F85014CBCAF9E4CB24F8500B10
:10140000CAF9E4CA24F8500379002224086010F8CD
:10141000C3EC13FCEB13FBEA13FAE913F9D8F1223E
:00000001FF
