:10000000020003758184120130E582600302006FF3
:10001000780079007A007B007C007D00EC4D601C4C
:1000200088828983E493A3A882A9838A828B83F040
:10003000A3AA82AB831CBCFFE31D80E07582007520
:1000400083007C007D00EC4D600AE4F0A31CBCFF43
:10005000F51D80F27582007583007C007D00EC4DFB
:10006000600AE4F0A31CBCFFF51D80F212012F1200
:10007000079180FE1B5B324A00706572696F6420D5
:100080003D20252E336620730A0066726571756502
:100090006E6379203D20252E336620687A200A0081
:1000A00074696D6520646966666572656E63652056
:1000B0003D20252E336675730A00706861736520D4
:1000C000646966666572636E65203D20252E336621
:1000D00020646567726565730A007265666572659E
:1000E0006E6365207065616B203D252E336676203A
:1000F0000A0074657374207065616B203D252E3392
:1001000066760A007265666572656E636520726D5B
:10011000733D252E3366760A007465737420726D04
:1001200073203D252E3366760A00252E3366002285
:1001300075A7007597DE7597AD75FF8075EF06752D
:10014000A71075C12075A70075A90075A900E5A9BC
:1001500030E7FB75A90375A903E5A930E7FB43A4C4
:100160001075E10175E20075E340759810758DE634
:10017000858D8B53890F438920D28ED29975820049
:100180002275A700C2EF75B28075BC2075B91E75C7
:10019000E80075DF3F75B300D2EF22AA82438E409C
:1001A0007592B87593FF8592948593957591047BAC
:1001B00000C3EB9A500BE59130E7FB53917F0B8026
:1001C000F075910022AA82AB837C007D00C3EC9A7B
:1001D000ED9B502B7E00BE0400501D7582FAC002BC
:1001E000C003C004C005C00612019BD006D005D0D4
:1001F00004D003D0020E80DE0CBC00D10D80CE22D4
:10020000AA828511F005F07401800225E0D5F0FB8B
:10021000FB75A720BA0002800ABA0102800FBA0259
:100220001E8014EBF4FA52F1EB42D48012EBF4FA94
:1002300052F2EB42D58008EBF4FA52F3EB42CC7564
:10024000A700228582BBC2EDD2EC30EDFD85BD82D8
:1002500085BE8322120243120B90AA82AB83ACF0BC
:10026000FDC002C003C004C005906C8B75F05374D0
:1002700040120BCCAA82AB83ACF0FDE58124FCF5E7
:1002800081E4C0E074FCC0E0747FC0E07446C0E06C
:100290008A828B838CF0ED120DF7AA82AB83ACF0CF
:1002A000FDE58124FCF5818A828B838CF0ED22D2DE
:1002B0009675822812019BC29622AA828AE0A2E742
:1002C0009286A2E69287A2E59290A2E49291C00261
:1002D0001202AF75822812019BD0028AE0A2E3923B
:1002E00086A2E29287A2E19290A2E092910202AFEE
:1002F000AA82D2A08A821202BA9000020201C5AA82
:1003000082C2A08A821202BA9000050201C5C2967A
:10031000C2979000141201C57582331202FF7582D4
:10032000331202FF7582321202FF7582281202FF19
:1003300075820C1202FF7582011202FF90001402F6
:1003400001C5AA82AB83ACF07402B523047DC080E2
:10035000027D808D82C002C003C0041202FF9000A3
:10036000051201C5D004D003D0027D007E00ED2A25
:10037000FFEE3BF88C018F82888389F0120B74FFAB
:1003800060208F82C002C003C004C005C0061202F4
:10039000F0D006D005D004D003D0020DBD00CF0EA2
:1003A00080CC3000248D028E03C3EA9410EB64806D
:1003B00094805015758220C002C0031202F0D00351
:1003C000D0020ABA00E30B80E022858226858327CB
:1003D00085F028E4F529F52AE52424FFFFE52534F6
:1003E000FFF879007A00C3E99FEA648088F063F03F
:1003F0008095F05059C002C007C000C001120D091D
:10040000AB82D001D000D007D002BB0A028003BB70
:100410000D1DE5292526FCE52A3527FDAE288C8211
:100420008D838EF0E4120D49852982852A8322E985
:100430002526FCEA3527FDAE288C828D838EF0EBD5
:10044000120D4909B900010A89298A2A8098E529EB
:100450002526FAE52A3527FBAC288A828B838CF087
:10046000E4120D49852482852583225389F043892E
:1004700005C28C22C28C5389F0438901758C0075AA
:100480008A00C28D20B0FD30B0FDD28C7A007B0096
:1004900030B00C108D0280F80ABA00F40B80F1C263
:1004A0008CEB3395E08B058A047B007A00AE8C7F61
:1004B00000780088018F008E077E00EE2AFAEF3B5D
:1004C000FBE83CFCE93DFDAE8AE4FF3395E0F8F93A
:1004D000EE2AFAEF3BFBE83CFCE93D8A828B838CF9
:1004E000F0020D1CC28C5389F0438901758C007594
:1004F0008A0020B1FD30B1FDD28C20B0FD30B0FDBE
:10050000C28C858C82120C6FAA82AB83ACF0FDC0CA
:1005100002C003C004C00590000075F0807443124F
:100520000BCCAA82AB83ACF0FDE58124FCF5818580
:100530008A82C002C003C004C005120C6FAE82AF35
:1005400083A8F0F9D005D004D003D002C006C007BC
:10055000C000C0018A828B838CF0ED120C7AAA82D3
:10056000AB83ACF0FDE58124FCF581C002C003C083
:1005700004C00590AAAB75F02A743E120BCCAA8277
:10058000AB83ACF0FDE58124FCF5818A828B838C02
:10059000F0ED22AA82AB83ACF0FDE4C0E0C0E074D1
:1005A00080C0E07440C0E08A828B838CF0ED120D35
:1005B000F785822B85832C85F02DF52EE58124FC93
:1005C000F581A28C5389F0438901758C00758A00EE
:1005D00020B0FD30B0FDD28C858C82120C6FAE82C3
:1005E000AF83A8F0F9C006C007C000C001900000AA
:1005F00075F0807443120BCCAE82AF83A8F0F9E59E
:100600008124FCF581858A82C006C007C000C00134
:10061000120C6FAA82AB83ACF0FDD001D000D007E2
:10062000D006C002C003C004C0058E828F8388F04C
:10063000E9120C7AAA82AB83ACF0FDE58124FCF5CB
:1006400081C002C003C004C00590AAAB75F02A7433
:100650003E120BCCAA82AB83ACF0FDE58124FCF505
:1006600081C02BC02CC02DC02E8A828B838CF0EDD4
:10067000120B9CAA82E58124FCF581EA6003020545
:10068000D8C28C75820F020254AA82AB83ACF0FDF3
:10069000E4C0E0C0E07480C0E07440C0E08A828BB7
:1006A000838CF0ED120DF785822F85833085F03134
:1006B000F532E58124FCF581A28C5389F043890150
:1006C000758C00758A0020B1FD30B1FDD28C858C0F
:1006D00082120C6FAE82AF83A8F0F9C006C007C0CB
:1006E00000C00190000075F0807443120BCCAE8204
:1006F000AF83A8F0F9E58124FCF581858A82C006E4
:10070000C007C000C001120C6FAA82AB83ACF0FD21
:10071000D001D000D007D006C002C003C004C0057D
:100720008E828F8388F0E9120C7AAA82AB83ACF0B8
:10073000FDE58124FCF581C002C003C004C0059022
:10074000AAAB75F02A743E120BCCAA82AB83ACF034
:10075000FDE58124FCF581C02FC030C031C0328A54
:10076000828B838CF0ED120B9CAA82E58124FCF530
:1007700081EA60030206CEC28C758210020254AA7E
:10078000827B007C00BA01047B017C008B828C831D
:100790002212046B12030E9001F41201C57474C08E
:1007A000E07400C0E07480C0E0120CE8158115818F
:1007B00015811201817511027582021202007511F4
:1007C00003758202120200120474AA82AB83ACF099
:1007D000FDC002C003C004C005900000E4F5F07441
:1007E00040120BCCAA82AB83ACF0FDE58124FCF572
:1007F00081C002C003C004C005C002C003C004C061
:10080000057479C0E07400C0E07480C0E0120CE8A8
:10081000E58124F9F581D005D004D003D002C002CF
:10082000C003C004C005C002C003C004C0059000DE
:100830000075F080743F120DF7858233858334850F
:10084000F035F536E58124FCF581C033C034C03580
:10085000C036748AC0E07400C0E07480C0E0120C3E
:10086000E8E58124F9F5811204E4AE82AF83A8F0B3
:10087000F9C006C007C000C001C006C007C000C064
:100880000174A0C0E07400C0E07480C0E0120CE805
:10089000E58124F9F58190000075F0B47443120BE2
:1008A000CCAE82AF83A8F0F9E58124FCF581D005B8
:1008B000D004D003D002C002C003C004C005C002EF
:1008C000C003C004C0058E828F8388F0E9120DF743
:1008D00085823785833885F039F53AE58124FCF542
:1008E00081C037C038C039C03A74BAC0E07400C0A3
:1008F000E07480C0E0120CE8E58124F9F581D005B0
:10090000D004D003D0028A828B838CF0EDC002C069
:1009100003C004C005120593AE82AF83A8F0F9D0DE
:1009200005D004D003D0028A828B838CF0EDC00600
:10093000C007C000C001120689AA82AB83ACF0FDDB
:10094000D001D000D007D006C002C003C004C0054B
:10095000C006C007C000C001C006C007C000C0017B
:1009600074DAC0E07400C0E07480C0E0120CE8E506
:100970008124F9F581D001D000D007D006D005D070
:1009800004D003D002C002C003C004C005C006C02A
:1009900007C000C001C002C003C004C00574F2C09B
:1009A000E07400C0E07480C0E0120CE8E58124F936
:1009B000F581D001D000D007D0067481C0E0740466
:1009C000C0E074B5C0E0743FC0E08E828F8388F0D1
:1009D000E9120DF7AE82AF83A8F0F9E58124FCF5AA
:1009E00081D005D004D003D002C006C007C000C02B
:1009F000017481C0E07404C0E074B5C0E0743FC00D
:100A0000E08A828B838CF0ED120DF7AA82AB83AC67
:100A1000F0FDE58124FCF581D001D000D007D0069F
:100A2000C002C003C004C005C006C007C000C001AA
:100A3000C006C007C000C0017404C0E07401C0E07B
:100A40007480C0E0120CE8E58124F9F581D001D072
:100A500000D007D006D005D004D003D002C002C019
:100A600003C004C005C006C007C000C001C002C06A
:100A700003C004C0057419C0E07401C0E07480C0F4
:100A8000E0120CE8E58124F9F581742AC0E07401D4
:100A9000C0E07480C0E07445C0E07400C0E0744001
:100AA000C0E0120DB1E58124F6F581742AC0E0742E
:100AB00001C0E07480C0E0743BC0E07400C0E0742A
:100AC00040C0E0120DB1E58124F6F581C033C03499
:100AD000C035C036742AC0E07401C0E07480C0E044
:100AE000744FC0E07400C0E07440C0E0120DB1E586
:100AF0008124F6F581C037C038C039C03A742AC0A5
:100B0000E07401C0E07480C0E07459C0E07400C0BB
:100B1000E07440C0E0120DB1E58124F6F581A2B386
:100B2000B3E433F58212077FE5828583F045F060F8
:100B30001E752301D20090004575F04012034275E6
:100B40002302D20090003B75F040120342801C75D6
:100B50002301C20090004F75F0401203427523023A
:100B6000D20090005975F0401203429001F4120136
:100B7000C50207C720F71430F6148883A88220F531
:100B800007E6A88375830022E280F7E49322E0223F
:100B9000E4AC83AB82FAF9748E020F1FFFA88118B0
:100BA00018120F47D2D133E6400730E70B758200A9
:100BB0002220E70675820122C2D1120F29E97003B3
:100BC000F5822220D101B3E433F58222120FF4BC66
:100BD0000003020F93EF60FA30D502B2D1E583B47F
:100BE000FF03020FA9E582B4FF03020FA92583408A
:100BF000072482400B020F932483145003020FA991
:100C0000F582EA8DF0A4A8F0EA8EF0A428F8E43585
:100C1000F0F9EB8DF0A428E935F0F9E433CA8FF050
:100C2000A429F9EA35F0FAEBF88EF0A429F9EA35AF
:100C3000F0FAE433FBEC8DF0A429F9EA35F0FAE49C
:100C40003BFBE88FF0A42AFAEB35F0FBE433CCFD54
:100C50008EF0A42AFAEB35F0FBE43CFCED8FF0A417
:100C60002BFBEC35F0FC20E703120FC1020F72E4FE
:100C7000AC82FBFAF97486020F1F120FF47900E5BB
:100C800083B58202800D5003121022E583C3958242
:100C900012103CE5D0C465D020E117EA2DFAEB3EF6
:100CA000FBEC3FFC5009740112103CEC4480FC0248
:100CB0000F72C3EA9DFAEB9EFBEC9FFC500FC3E45E
:100CC00099F9E49AFAE49BFBE49CFCB2D1120FC1BF
:100CD000020F72021A0B85827185837285F073850B
:100CE0001074900CD302145EC008858108E50824B6
:100CF000FBF574E50824FBF8867108867208867394
:100D0000900CD312145ED0082210980280FBAA998E
:100D10008A82C002121A0BD0028A8222FCABF0AA8D
:100D200083A982749EF582C2D1EC30E716D2D1E954
:100D3000F42401F9EAF43400FAEBF43400FBECF4A7
:100D40003400FC120FC1020F7220F71030F6118828
:100D500083A88220F507F6A88375830022F280F726
:100D6000F022AA82AB09AC0AAD0B8B828C838DF08A
:100D7000EA120D490509E4B50902050A228582092E
:100D800085830A85F00B850C71850D72850E738540
:100D90000F74900D6212145EAA82AB83AC09AD0A87
:100DA000AE0B8C828D838EF0E4120D498A828B8388
:100DB00022C008858108E50824F8F574E50824FBBD
:100DC000F8860908860A08860BE50824F8F8867173
:100DD000088672088673900D6212145EAA82AB8335
:100DE000AC09AD0AAE0B8C828D838EF0E4120D49F6
:100DF0008A828B83D00822120FF430D502B2D1BF81
:100E00000009BC0003020FB6020FA9BC0003020FC9
:100E100093E583B4FF0BE582B4FF03020FB6020F24
:100E200093E582B4FF03020FA9C395835007247F83
:100E3000400B020F932480145003020FA9C0E0E47A
:100E4000CCCBCAF98D118E128F13EF54F0C4F51468
:100E50007583068514F0EB84F582E9C4F9EAC4FAD7
:100E6000EBC4FBEC540FC47803D6FC18EBD6FB188C
:100E7000EAD6FA8582F0EDA4A8F0FD8582F0EEA412
:100E800028FEE435F0F88582F0EFA428FFE435F081
:100E9000F8E99DF9EA9EFAEB9FFBEC98FCAD11AEE8
:100EA00012AF1330E7101582E92DF9EA3EFAEB3F55
:100EB000FBE43CFC80EDC082D58398C3E933F9EABA
:100EC00033FAEB33FBEC33FCC3E99DEA9EEB9FEC7A
:100ED0009400B3E413F9D002D0E0C44AFAD003D0AE
:100EE000E0C44BFBD004D0E0F5F0540FC44CFCD070
:100EF00082158230F40FD3EC13FCEB13FBEA13FAE8
:100F0000E913F90582E930E70A74012AFAE43BFBA8
:100F1000E43CFC020F8AFCABF0AA83A982749EC257
:100F2000D1F582120FC1020F727901AA82E68F8277
:100F3000B5821318E6B5F00E18E6B5830918E68AEF
:100F400082B58202790022B4800FE5F0700AE58351
:100F50007006E58270027F00EFB6801518B60010AB
:100F600018B6000B18B60006080808760022080814
:100F70000822B98003EA13B34010EA2401FAE43BE3
:100F8000FBE43CFC50047C800582BC000EBB000BE3
:100F9000BA0008E4F5F0F583F58222A2D1E58213C8
:100FA0008CF092F78B838A8222E4F583F58275F0C8
:100FB00080F4A2D11322E4F583F58275F0C0747F2A
:100FC000227804EC7011E58224F8500AF582E4C915
:100FD000CACBFCD8EF22EC7820058220E713D5821B
:100FE0000122C3E933F9EA33FAEB33FBEC33FCD8E3
:100FF000EA158222AA82AB83A2F73392D16002D291
:10100000F7F582ACF0E58124F9F8E6FD08E6FE0884
:1010100086F008E6A2F73392D56002D2F7F583AFE7
:10102000F022E582C583F582A2D133A2D592D113F5
:1010300092D5ECCFFCEBCEFBEACDFA226040F8254E
:1010400082500274FFF582E824F8501ECCCBCAF916
:10105000E4CC24F85014CBCAF9E4CB24F8500BCAE2
:10106000F9E4CA24F8500379002224086010F8C378
:10107000EC13FCEB13FBEA13FAE913F9D8F122AAFB
:10108000827490C0E07410C0E0C063C0648A8222A1
:10109000056AE4B56A02056B22AA8274302AFA2432
:1010A000C6500A74072AFA3001034302208A8202DA
:1010B000107FE582FAC4540FF582C002121099D055
:1010C00002740F5AF582021099AA65AB66AC67AD3F
:1010D00068AE69757020EE2EFEED235401FF4206C6
:1010E000EA2AFAEB33FBEC33FCED33FDC3EE956CEF
:1010F0004008EEC3956CFE430201D570D98A658B1A
:10110000668C678D688E69227881E624D075F00A36
:10111000A4FA7882E624D02AFA78808603BB2D04CC
:10112000C3E49AFA756C01C3E464808AF063F080CA
:1011300095F050297570038A0374F62570401C05DC
:101140006CE570142475F8E5702475F98704A6041D
:10115000772E1BEBFA6004057080DE8B02EA30E725
:101160000D787686037877A6037876762E0AE56E74
:10117000600AE56E04FB256CF56C8005300C0205F9
:101180006C78758603E4BB2D0104FB700620070311
:10119000300802056C30050302124F300657EB6031
:1011A0000C75822DC00212107FD002801C30070CFB
:1011B00075822BC00212107FD002800D30080A7594
:1011C0008220C00212107FD00278768604BC2E0CDA
:1011D000758230C00212107FD002156DAC6D156D96
:1011E000C3E56C9C4003021293758230C00212105A
:1011F0007FD00280E7AC6D156DC3E56C9C500C751B
:101200008220C00212107FD00280EA78758604BC6A
:101210002D0C75822DC00212107FD002801C300769
:101220000C75822BC00212107FD002800D30080A8C
:10123000758220C00212107FD00278768604BC2E00
:1012400052758230C00212107FD002156D8044EBBF
:10125000600E75822DC00212107FD002156D8020A5
:1012600030070E75822BC00212107FD002156D80E0
:101270000F30080C758220C00212107FD002156D4D
:1012800078768603BB2E0C758230C00212107FD098
:1012900002156D757001C20EE5702475F88603BBEA
:1012A0004503021350BB2E348A03C3E464808BF0E1
:1012B00063F08095F0500F758230C00312107FD01C
:1012C000031B8B0280E48B02D20EE56E7038200C7B
:1012D0000302135075822E12107F8074300E278AFD
:1012E00003EB30E71FC3E46480856EF063F0809504
:1012F000F0500C758230C00312107FD003156E0BB6
:101300008B0280DD8B02300E0EC3E46480856EF0AC
:1013100063F08095F05021E5702475F886038B8288
:10132000C00212107FD002300E0EE5702475F886D0
:1013300003BB2E028002156E156DC3E46480856EBA
:10134000F063F08095F04003200E050570021298BE
:10135000C3E46480856EF063F08095F0500A758276
:101360003012107F156E80E830050FAA6D156DEAFA
:10137000600875822012107F80F122E56E700330C4
:101380000C0D7407256EFAE56DC39AF56D8006E5C0
:101390006D24FAF56D75700078758602BA2B0F20F2
:1013A000070C78757620200805757001056D2005FD
:1013B00019AA6DC3E464808AF063F08095F0500A46
:1013C00075822012107F156D80E7C20EE5702475BE
:1013D000F88602BA00028069BA451F3001027665BC
:1013E000C3E46480856EF063F08095F0500A7582E6
:1013F0003012107F156E80E8D20EC3E5709402E4BF
:1014000033FA7014EA700EC3E46480856EF063F002
:101410008095F04003300E16E5702475F886028A38
:101420008212107FE57024FD5012156E800E74023A
:10143000B57009300C0675822E12107F05700213EC
:10144000CC300519AA6DC3E464808AF063F08095FE
:10145000F0500A75822012107F156D80E722858278
:1014600063858364E4F56AF56BAA71AB72AC738A29
:10147000828B838CF0120B74FD74012AF571E43BAE
:10148000F5728C73EDFA7003021A04BA2502800318
:101490000219FCC205C206C207C208C209C20AC2BA
:1014A0000BC20CC202C203C204756C00756D0075DC
:1014B0006EFFAB71AC72AD738B828C838DF0120BAF
:1014C00074FAA3AB82AC838B718C728D73BA2507CF
:1014D0008A8212107F80928A06BE3000402E8A06D1
:1014E000EE24C6402774FFB56E13E56D75F00AA4AF
:1014F000FEEA24D02EF56D70BFD20680BBE56E7576
:10150000F00AA4FEEA24D02EF56E80ACBA2E0A743E
:10151000FFB56EA4756E00809F8A06BE6100400E06
:101520008A06EE248540075302DFD2018002C20101
:10153000BA20028075BA23030215B9BA2A0302152C
:10154000BEBA2B02805FBA2D028055BA4202805F7C
:10155000BA4303021603BA440302173EBA45030214
:101560001758BA4603021754BA470302175CBA4920
:101570000302173EBA4C02803BBA4E03021760BA10
:101580004F03021745BA50030216D7BA5303021687
:1015900027BA550302174ABA580302174F02178A8F
:1015A000D2050214B8D2070214B8D2080214B8D275
:1015B0000A0214B8D20B0214B8D20C0214B874FF89
:1015C000B56E20300A0BE57414F88874866D021429
:1015D000B8E57424FEF888748606088607188E6DB0
:1015E0000214B8300A0BE57414F88874866E02147D
:1015F000B8E57424FEF888748606088607188E6E8F
:101600000214B8300A0AE57414F888748602800F50
:10161000E57424FEF888748603088604188B028A11
:101620008212107F02178FE57424FDF888748603F8
:1016300008860408860518188B658C668D678B8272
:101640008C838DF0121B3FAB82AC838B6F74FFB524
:101650006E03856F6E20051DC3E56F956D5016E511
:101660006DC3956FF56DAB6D156DEB6008758220E0
:1016700012107F80F18565828566838567F0120B85
:1016800074FBFA6029AB6E156EC3E464808BF06363
:10169000F08095F050188A8212107FAB65AC66AD71
:1016A000670BBB00010C8B658C668D6780C72005BE
:1016B0000302178FC3E56F956D400302178FE56D29
:1016C000C3956FF56DAB6D156DEB700302178F75DC
:1016D000822012107F80EEE57424FDF88874860362
:1016E00008860408860518188B658C668D67E56783
:1016F000FB30E7047A438013EB546060047A508037
:101700000AEB30E6047A4980027A588A82C00212D3
:10171000107F75823A12107F75823012107F7582A9
:101720007812107FD002BA4902800BBA50028006AC
:101730008566821210B28565821210B28051D2097C
:10174000756C0A804A756C088045756C0A80407516
:101750006C10803BD2028037D2038033D204802FBA
:10176000E57424FDF8887486030886040886051845
:10177000188B658C668D678B828C838DF0E56A1281
:101780000D49A3E56B120D4980058A8212107F2056
:101790000206200303300470E57424FCF888748684
:1017A000030886040886050886061818188B658CB9
:1017B000668D678E68E565E566E567E5688B828C12
:1017C000838DF0EE121A2074FFB56E03756E06302D
:1017D0000427747F5568FB8B69E569EB2BFB8B69EC
:1017E000E56730E70674014569F569E569246840F5
:1017F00006749925694002D20330030612137B0256
:101800001469121108021469E56C70030214697BF3
:101810007A300A2BE57414F88874E6FC3395E0FD01
:10182000FEFF8C658D668E678F6820095EAC657DD6
:10183000007E007F008C658D668E678F68804C30DF
:101840000B1FE57424FCF888748604088605088656
:10185000060886071818188C658D668E678F688055
:101860002AE57424FEF88874860408860518ED338A
:1018700095E0FEFF8C658D668E678F6820090CAC45
:1018800065AD667E007F008E678F68300C43E5652E
:1018900045664567456860397408B56C0C758230DB
:1018A000C00312107FD00380287410B56C2375829A
:1018B00030C00312107FD00330010C758278C00352
:1018C00012107FD003800A758258C00312107FD097
:1018D00003300925AC65AD66AE67E568FF30E717F4
:1018E000C3E49CFCE49DFDE49EFEE49FFF8C658DBB
:1018F000668E678F688002C209756F00D20D8B00FB
:10190000756900C0001210C9D000200D0DE569C432
:10191000FCE6FD4CF61888038002A669056FB20D3F
:10192000E56545664567456870D68803E56D7003D3
:10193000756D0120061A200517E56F04FCC3956D2F
:10194000500E758220C00312107FD003156D80E900
:1019500030090E75822DC00312107FD003156D80E3
:1019600024E56F602030070E75822BC00312107FB4
:10197000D003156D800F30080C758220C003121043
:101980007FD003156D20051EAC6D156DC3E56F9CF2
:1019900050273006047C3080027C208C82C00312E9
:1019A000107FD00380E2C3E56F956D5009E56DC3EC
:1019B000956FF56D8003756D008B00AB6F156FEB48
:1019C0006022B20D200D0A08E6C4540FFB8B69801B
:1019D000078603740F5BF569856982C00012109950
:1019E000D00080D7200503021469AB6D156DEB7034
:1019F0000302146975822012107F80EE8A82121011
:101A00007F021469856A82856B8322AA82BA0A08DA
:101A100010990280FB75990D10990280FB8A99221A
:101A2000C0E0F84582458345F07009F5F0FBFCFD08
:101A3000FE021AEEE823A2F792E0F8A982AA83D266
:101A4000F7ABF07C007E07C3749798404074FF2E7C
:101A5000FE740A89F0A4F985F082740A8AF0A4FA67
:101A600085F083740A8BF0A4FB740529F9EA3582AA
:101A7000FAEB3583FB740035F0FCC3EC13FCEB137D
:101A8000FBEA13FAE913F908EC70EF80BAE8C394A3
:101A90007FF88B838EF0E4FBFCFDFEFF08C3E93387
:101AA000F9EA33FAE58333F583EB3BD4FBEC3CD422
:101AB000FCED3DD4FDEE3ED4FEEF3FD4FF602D059E
:101AC000F074052BD4FBE43CD4FCE43DD4FDE43EAF
:101AD000D4FEE43FD4FF758204C3EF13FFEE13FE80
:101AE000ED13FDEC13FCEB13FBD582EDD8AF78754D
:101AF000D0E020E704762B8002762D087906E7C433
:101B0000540F4430F608B90603762E08E7540F4404
:101B100030F60819B902E7764508E5F020E70476C3
:101B20002B8004762DF4040875F00A844430F608FE
:101B3000E5F04430F608E4F690007575F04022AA0E
:101B400082AB83ACF07D007E008A828B838CF012A6
:101B50000B74FFA3AA82AB83EF60070DBD00EA0EF2
:101B600080E78D828E8322000000000000000000CC
:00000001FF
